:020000040000fa
:080000000001040000000000f3
:020000040000fa
:100200008f8920000e7922000e0188000000000076
:100210000c000700605d20000100200011000700b5
:10022000000020000000e000020032000000020098
:1002300000000000d8030200000000000040da00c7
:100240000000fe004440a900000020000000e00083
:100250000300320000002000a00188004440a800f4
:100260000000060091018800800078000000eb008b
:1002700015003700e280400032a0b4009101ba00be
:10028000e280400032a0b4009102ba00e280400057
:1002900032a0b4000002eb00472bde00f507b200ed
:1002a000602ce10004003a000059eb008301e900f2
:1002b000fdff3e00040037006128e100010032002c
:1002c0000082eb00040007001101ba000200e00008
:1002d000e8ff3a00000006003159ba008301e90046
:1002e0000c0032002159ba008301e90008003200f5
:1002f0000400e00003003a00e280400032a0b400b5
:10030000f5ff370011d9ba008301e900faff3a007e
:100310008100e800e180400032a0b4000000060047
:10032000ff3ffc00a743800007007800f1428000f7
:100330000002020000000000b04388000900200015
:1003400007007800e1428000000202000000000087
:1003500000805400c04388000000fc00000006003c
:1003600030158800a022a800a002ae00feff3700d2
:10037000a002aa00001480004100de000000060078
:10038000ff3ffc0030302000b00102000000000000
:100390008003780020202000b0010200000000004f
:1003a00000047800554480000538e10003003c005b
:1003b0000540e10001003c00010037008980a800f1
:1003c0000000fc0000000600ff3ffc00b04380007e
:1003d000f14280000002020000000000800478006a
:1003e000c0438000e14280000002020000000000e3
:1003f00080835400a74388000000fc000000060032
:1004000000027800810278001301c0004100c8009a
:10041000f60020000600c800100180000000060061
:10042000ff3ffc00010050009e020200000000009f
:1004300000027800820278001301c0004100c80069
:1004400058020200000000009e02020000000000ae
:1004500000047800d9428000090042009e02020098
:100460000000000000027800d0428800830278007b
:100470001301c0004100c800580202000000000043
:100480009e02020000000000800478000900440081
:100490009a428000ab4280000a80e6000a007800a1
:1004a0000b00e6000b0078004380de002e003700d2
:1004b0004220ef0060026a000a0033002a01800037
:1004c0000a00e00018003a001a0180000a00e0006b
:1004d00018003200020009004555de0012003a0003
:1004e000140037002a018000fbff2f000a00e00003
:1004f00001003a000f0037000b50e10007003a00fe
:100500001a0180000a00e0000a003200020009001f
:100510004555de0001003200060037001a022800af
:100520001a01880003003700fafd27001a0188002d
:10053000000037001001800000000600fafd2300d3
:100540001b022c000a00e10003003d000b00e1004b
:1005500003003400030037000a0078000100370070
:100560000b007800000006000000fc000000060000
:10057000ff3ffc00b5428000004480000083520031
:1005800005004000d402020000000000b00e880008
:100590000600780005004000d402020000000000c0
:1005a000c00e8800040037000000e00001003c009d
:1005b00000002000000006000000fc000000060013
:1005c0000600fa00200798000000eb00000f7800fa
:1005d0000c0037000000eb00100798000400370003
:1005e0000060fe001e0090000000e8001007980068
:1005f0009e009000e0822600808f5000f8ff3600b9
:100600001e0fe8002e0090009e0f1000f1ff390031
:100610000080fa00000006000000fa00e402a900d1
:10062000e422a900e442a900e462a900e4c2a9000e
:10063000011c200091407800c0cfb30000c06000d2
:100640000014a000c0e1b700210e800000002800c7
:1006500000806000116f200001007000200e8800f3
:10066000c801a900c821a900c841a900c881a900e2
:10067000c8a1a900c8c1a900ca41a900ccc1bf0036
:10068000f043b20001c8b30001407000cce1b700f4
:10069000c11c20009140780000ccb30000c0600075
:1006a000a040b300cce1b700d201a900d221a9003b
:1006b000d241a900b01020001008880005e1a9006f
:1006c000505320006008880011e1a900c08a200072
:1006d0007008880013e1a90040032d00d0088800ad
:1006e0001fe1a90030de2000e008880021e1a90018
:1006f000012a20009140780000ceb30000c07000b5
:10070000a0e2b700a062a900112a20009140780061
:10071000c0cfb30000c060000014a000a1e2b70089
:100720000000eb0010158800512a2000914078004d
:1007300000ceb30000c060000014a000a5e2b70026
:10074000412a20009140780000ccb30000c0600036
:100750005040b300a4e2b7003001280040158800e3
:100760000000eb0050158800a1e2a80081e0a9007c
:10077000aac0bf007040b300aae0b7009180a800f3
:100780008c60a8008cc0a90051092000914078001d
:10079000f0c8b30000c0600001c6b30001407000a3
:1007a00095e0b70090e0a9000080fa000000060084
:1007b0000000fa0098ff0700ac00070084c0bf00eb
:1007c0000044b2000004e00023003200a044800096
:1007d000b0438800b0448000c0438800fafe0700a0
:1007e000ff3ffc0080002000ddfe07008000780055
:1007f0008042800000805000f04388000000fc0030
:10080000f143800060448000808f5000010034007c
:100810008980a900f143800070448000808f5000df
:1008200001003d008980a90000448000d04288007a
:10083000e0438000d2438000f1438000a443800065
:100840008001780004007800f5fe0700004488006d
:1008500047ff070084c0a90084c0bf0001c8b300df
:10086000014060000004e00035003200ff3ffc0062
:1008700011448000e0428000e1fe0700a0438800b0
:100880000000fc00a6fe0700b04380002044880062
:10089000c043800030448800ff3ffc00500020002f
:1008a000affe07008000780080428000008050008a
:1008b000a04388000000fc0099fe070080438000f0
:1008c000d04288007043800062438000b1438000c2
:1008d000244480008001780004007800d0fe0700e6
:1008e0008043880090438000d0428800704380009d
:1008f00062438000c143800034448000800178005e
:1009000004007800c6fe070090438800a0448000e1
:100910008044880091448000804380008b00070061
:10092000a0448800b0448000804488009144800046
:100930009043800085000700b044880084e0a9004f
:1009400086c0bf000042b2000004e0000d0032008b
:100950008bfe070070072000400e880010448000c6
:100960000000e800104488001144800040448000ea
:10097000808f500002003500404480001044880001
:1009800086a0a9000060fe008cff370000a0fe00da
:100990003600f800849fbe00869fbe000000fa006b
:1009a00086c0bf000044b2000004e0001b0032001b
:1009b0001043800000438800004380006101b900bb
:1009c00020438000314380000200400083804800c3
:1009d0002043880031438800224380003343800055
:1009e0004043800051438000800f5100818f5900a7
:1009f000080035000000eb00e042880080eb270093
:100a0000f04288006000b80020438800314388002d
:100a1000010037005500070086c0a9008460a900c6
:100a20000080fa004f03be004f02be003600f900fe
:100a30000080fe0000400600801f78000000fa00e1
:100a4000c1e1a9000000eb00400e8800e622a900e9
:100a5000e642a900e662a900e6c2a9008980a900d1
:100a60000080fa004f007800004006000000fa0005
:100a7000200e8000b0428800200e80000000ea00b6
:100a8000c0428800b04280004300dd0090428800f0
:100a9000b142800080ff2f000088b900a04288008a
:100aa0000000eb00400e8800c1e1a900100020000a
:100ab000900e8800e0012000c1fe0700a1e2a8001e
:100ac000e602a800f0002000bdfe0700e0e02000e4
:100ad00023fe070080428800e602a900e001200012
:100ae000b7fe0700e622a800e0012000b4fe0700e0
:100af000b0428000b00e8800b0428000c00e880076
:100b0000b0428000d00e8800e642a80040012000dc
:100b1000abfe0700e662a80040012000a8fe070027
:100b2000e6c2a800e0012000a5fe0700c1e1a80080
:100b300005e1a80011e1a80013e1a8001fe1a80049
:100b400021e1a8000080fa0000000600ff3ffc0041
:100b500082448000020050000002020000000000f9
:100b6000020040000000fc0000000600ff3ffc0007
:100b7000e9428000f0428000014380000002020050
:100b80000000000000804400e0428800f94280003c
:100b900001438000000202000000000000805400b9
:0c0ba000f04288000000fc00000006008d
:020000040000fa
:0200000401f009
:04000000f7ff000006
:020000040000fa
:0200000401f009
:04000400c0ff000039
:020000040000fa
:0200000401f009
:04000800dfff000016
:020000040000fa
:100008000e0600000e0600000e0600000e06000098
:100018000e0600000e0600000e0600000e06000088
:100028000e0600000e0600000e060000c6040000c2
:100038000e0600000e0600000e0600000e06000068
:100048000e0600000e0600000e0600000e06000058
:100058000e0600000e0600000e0600000e06000048
:100068000e0600000e0600000e0600000e06000038
:100078000e0600000e0600000e0600000e06000028
:100088000e0600000e0600000e0600000e06000018
:100098000e0600000e0600000e0600000e06000008
:1000a8000e0600000e0600000e0600000e060000f8
:1000b8000e0600000e0600000e0600000e060000e8
:1000c8000e0600000e0600000e0600000e060000d8
:1000d8001c0500000e0600000e0600000e060000bb
:1000e8000e0600000e0600000e0600000e060000b8
:0800f8000e0600000e060000d8
:020000040000fa
:100108000e0600000e0600000e0600000e06000097
:100118000e0600000e0600000e0600000e06000087
:100128000e0600000e0600000e060000c6040000c1
:100138000e0600000e0600000e0600000e06000067
:100148000e0600000e0600000e0600000e06000057
:100158000e0600000e0600000e0600000e06000047
:100168000e0600000e0600000e0600000e06000037
:100178000e0600000e0600000e0600000e06000027
:100188000e0600000e0600000e0600000e06000017
:100198000e0600000e0600000e0600000e06000007
:1001a8000e0600000e0600000e0600000e060000f7
:1001b8000e0600000e0600000e0600000e060000e7
:1001c8000e0600000e0600000e0600000e060000d7
:1001d8001c0500000e0600000e0600000e060000ba
:1001e8000e0600000e0600000e0600000e060000b7
:0801f8000e0600000e060000d7
:020000040000fa
:100bac005008000048000000020000000000000097
:100bbc000000000000000000000000000000b80071
:100bcc007e0000005c05e80023030000e82303001e
:100bdc0000120000030000000000000000000000f4
:100bec00000000001b0003000000000000000000db
:100bfc00000000000000fc001c5078004015c000f4
:100c0c00ea000000110100000000000000000000dc
:020000040000fa
:080c1c000040da000000fe00b8
:00000001FF
